:020000020000FC
:100000000FED0DBFB19BFCCF01E007BB08BB0FE0BC
:100010000ABB0BBB11E021E0012F2BD0B19921E0ED
:10002000022F322F043114F431E003C0369509F465
:100030003395230F243630F439D01395173061F7F8
:1000400011E0EACF3AE0212F00E013D005E02ED0F6
:10005000022F0FD005E02AD03A95A9F721E032E32C
:10006000B199DACF0AE022D03A95D1F700E008BB87
:10007000FDCF0F930A9511F401E015C00A9511F414
:1000800004E011C00A9511F405E00DC00A9511F4C1
:1000900006E009C00A9511F407E005C00A9511F4BD
:1000A0000EE001C000E00BBB0F9108950F931F936A
:1000B0002F9311272CE01A95F1F72A95E1F72CE000
:0C00C0000A95C9F72F911F910F91089528
:00000001FF
